:020000040800F2
:100000000000022031E60408B3830408092B03082A
:10001000E1E60408E1E60408E1E604080000000067
:10002000000000000000000000000000B983040888
:10003000B783040800000000B5830408F70404082F
:10004000E1E60408E1E60408E1E60408E1E6040864
:10005000E1E60408E1E60408E1E60408E1E6040854
:10006000E1E60408E1E60408E1E60408399604083C
:100070002596040811960408FD950408E9950408DE
:10008000D5950408C1950408E1E6040800000000C5
:10009000000000000000000000000000E1E604088D
:1000A000E1960408BD96040899960408059704088B
:1000B000899604087596040861960408E1E6040828
:1000C000E1E60408E1E60408E1E60408E1E60408E4
:1000D000E1E60408259704081997040800000000C9
:1000E000E1E60408E1E60408C59804080000000001
:1000F000000000000000000000000000AD950408B2
:1001000000000000E1E604084D960408E1E604085A
:1001100000000000000000000000000000000000DF
:100120009995040885950408719504085D9504085F
:1001300049950408000000000000000000000000D5
:10014000000000000000000000000000098A040810
:1001500035950408219504080D950408E1E6040886
:10016000E1E60408E1E604080000000000000000E9
:10017000000000000000000000000000000000007F
:1001800000000000E1E6040800000000000000009C
:08019000E1E60408E1E60408C1
:08019800D0E1040001000000A9
:1080000009284FF0010307D903EB83035B00B0FBA2
:10801000F3F2092AF8D883B3F0B4DFF864C000257E
:108020000EE00A2A1E460F462346B4BF30245724CA
:108030002244092E01F1010105F101053A700FD921
:10804000ACFB0324E408B0FBF3F203FB1200002DA9
:10805000E7D1002AE5DC092B06D8303201F8012BE4
:108060000023F0BC0B707047ACFB0436B0FBF4F29D
:10807000234604FB1200F408EBE700230B70704763
:10808000CDCCCCCCF0B40D6800240CE0BCF1050FD5
:1080900018D8A0F137030A2B14D104EB840415F887
:1080A000010B03EB4404A0F13003DEB2092EA0F172
:1080B0006107A0F1410CF0D9052FE7D8A0F15703D3
:1080C0000A2BEAD00D601460F0BC7047D0ED017A45
:1080D000037870EE605A25EEA75A002B62D1D0EDDE
:1080E0000C7A01F00103002B59D075EEE77AF0EE1F
:1080F000650A90ED0A6AC0ED0C0AB5EEC06AF1EEB1
:1081000010FA87EE817A6FDCD0ED037A67EE277A7A
:1081100090ED057AD0ED0B6A20EE077A67EEA22A81
:1081200077EE267A77EE857A77EEA27AF4EEE17A28
:10813000F1EE10FA7BD4F4EEC27AF1EE10FA8CBFB5
:10814000B0EE420AB0EE670A11F0120F80ED0E5A3F
:10815000C0ED0D6AC0ED0F2A80ED107A80ED110A96
:108160001AD170EE677A90ED046A90ED027A67EEAC
:10817000867A4A07E5EE877AB0EE667AA1EE277A2C
:10818000F0EE477A19D5B0EEC77AB0EEE66AB4EEF3
:10819000C67AF1EE10FA4DD40B0714D4704777EE7F
:1081A000E07AA6E711F001034FF000020CBFF0EEF9
:1081B000607AF0EE657A027095E70B07F0EE476A99
:1081C00080ED0B7AEAD5F4EEE61AF1EE10FA08DC4F
:1081D000B4EEE62AF1EE10FA8CBFF0EE661AF0EE7D
:1081E000421AC0ED0B1A7047D0ED076AD0ED034A72
:1081F00080ED081AF5EE406AF1EE10FA04BFDFEDEB
:10820000107AC7EE866AD0ED067A08BFC0ED076A1D
:1082100071EE266A37EE677A81EE266AE6EE077A15
:1082200080ED096AC0ED067A64EEA77A70E7B0EED9
:10823000610A89E7C0ED0B7AF0EE676AACE700BF30
:1082400083F9223E00B583B00268074B8188CDF8E0
:10825000012032221B68ADF805108DF80020684619
:10826000984703B05DF804FBF00F00201F4B2DE989
:10827000F0415D68064600F10708002407E0394632
:108280001B68284698473C444645A4B212D016F8CD
:10829000017BA7F17D03012B28462B684FF07D0160
:1082A000EDD81B6898472B6887F02001E8E7E3B218
:1082B00003EB1424FF2CFAD8C4F1FF04E4B2A4F1B8
:1082C0007D03012B2B6805D9214628461B68BDE894
:1082D000F041184728461B687D2198472B6884F099
:1082E000200128461B68BDE8F0411847F00F002028
:1082F0000A4AD36910B519810021998151695960E1
:1083000019684C1C1C600870D36952694FF6F671ED
:1083100099811968C3E9002110BD00BFF00F00204A
:108320000A88504080EA0010C0B2030983EA122391
:1083300043EA002383EAC00008807047064B93F8A5
:108340003320012A02D1054A1A667047022A0CBF5F
:10835000034A044AF8E700BFF00F002000000020A5
:108360000A00002014000020F8B500220D464FF648
:10837000FF7302398A420FD346194354094F1B0A2F
:1083800006F8013C044614F8011B786E38F040F9F9
:10839000A642F8D1E8B2F8BD845C1B1B9BB2013247
:1083A000E8E700BFF00F002007B50B1408228DF896
:1083B000043060F05F000B0E8DF80100ADF8021084
:1083C0008DF805301146002368468DF80020ADF881
:1083D0000630FFF7C9FF03B05DF804FB07B50623BD
:1083E00060F05F008DF80100ADF802100022194620
:1083F00068468DF80030ADF80420FFF7B5FF03B0F4
:108400005DF804FB034A936E43F4060343F47C4394
:1084100093667047F00F002030B50B4D04460144C1
:1084200000208C4200D130BD14F8013B43409A003B
:1084300082EA43025A40DB0803F0180345FA03F3CB
:108440005340D8B2EDE700BF0007090E30B5002851
:108450000F4D104BB8BF40423C24B0FBF3F205FB7C
:10846000020060430C4C90FBF3F394F82A40002C7C
:108470000CBF64243C2412FB04F21A440A8005FB5E
:1084800003034FF47A7293FBF2F34B8030BD00BFCD
:10849000806967FF80969800F00F0020014610B5B4
:1084A000094C5E29E06E08D15D2138F0B1F83E211B
:1084B000E06EBDE8104038F0ABB85D29F9D138F076
:1084C000A7F83D21F4E700BFF00F0020024B5E212A
:1084D000D86E38F09DB800BFF00F0020264B196809
:1084E0005B6821F0404222F07F02002A0CBF01208D
:1084F00002204A0748BF0430D90744BF0A3080B27F
:108500009A0744BF143080B2D90544BF283080B2E6
:108510005A0744BF643080B2190744BFC83080B2E4
:108520009A0644BF00F5C87080B2D90644BF00F572
:108530007A7080B2DA040FD500F5FA5080B299044F
:1085400042BF00F51C50103080B29A050ED5A0F540
:10855000C740403880B27047190502D500F5FA606F
:10856000ECE75A06EBD500F57A60E7E75B05F2D554
:1085700000F59C402030EDE7C0C60020002270B519
:1085800011460A24561C08B9084670BDB0FBF4F524
:10859000D2B204FB150392009BB293401943A8B2D8
:1085A0003246EFE730B500280D4D0E4AB8BF4042C5
:1085B000B0FBF2F305FB030003EB83033C2403EB66
:1085C0008303604390FBF2F202EB83030B8005FB15
:1085D00002024FF47A7392FBF3F24A8030BD00BF7F
:1085E000806967FF80969800022803D0431E584296
:1085F00058417047054B93F8283013B1102029F0EB
:1086000085BD034B1868C0F380007047F00F002051
:10861000C0C60020014B93F870007047F00F002097
:10862000F0B4434D3E247B21EA22C82385F87540EF
:1086300085F8761085F87720013885F8743085F84C
:10864000783005F1790205F1B3014D2410F8013FAE
:1086500002F8013B634013F0800F4FEA430315BF5C
:1086600083F0D504DCB263B25BB218BFE4B2002B76
:10867000B5BF6400630084F0D504DCB2B6BF63B25A
:108680005BB2E4B2002BB7BF6300640083F0D50394
:108690005CB2A6BFE3B264B2DBB2002CB7BF5B0032
:1086A0005C0083F0D5035CB2A6BFE3B264B2DBB278
:1086B000002CB7BF5B005C0083F0D5035CB2A6BFA3
:1086C000E3B264B2DBB2002CB7BF5B005C0083F0A6
:1086D000D5035CB2A6BFE3B264B2DBB2002CB5BF77
:1086E0005B005C0083F0D503E3B2B6BF5CB264B25A
:1086F000DBB25B00002CB8BF83F0D5038A42DCB24A
:10870000A4D10C4E85F8B340A6F144070FCF0FC695
:108710000FCF0FC60FCF0FC697E80F00402785F881
:10872000B44086E80F0085F8F870F0BC704700BFD1
:10873000F00F0020A8100020024A936823F4605331
:1087400093607047C0C6002000207047002070472B
:10875000094A08B5D2E90332C01A61EB020145F0BB
:1087600041FDDFED067A07EE100A67EE277AFCEE90
:10877000E77A17EE900A08BDC0C600206F12833A50
:1087800008B50E2029F0C2FC20B9034BD869C0F30C
:10879000807008BD0120FCE7C0C6002038B5044643
:1087A0000D460A460068FF2144F0DAF821682944A2
:1087B000216038BD0268511C08B501607F2111702D
:1087C00002680023511C016013700E21FFF7E6FFC1
:1087D000012008BD30B52D4C94F82031012B85B017
:1087E00001D005B030BD94F82101022826D0A0F1B7
:1087F0000100B0FA80F04009636838B3002BF0D173
:10880000D4F82421002AECD094F8305094F82910A0
:1088100092F90400002D14BF08220022002908BF8D
:1088200042F0010203254FF46141CDE9015200916C
:108830001A46202122F04EFC6060D2E794F82830DE
:10884000ABB9134B1868C0F38000D5E7002BC8D034
:10885000D4F800219A420ED0D4F80C21934210D0C3
:10886000D4F8182193420ED000236360B9E710209A
:1088700029F04CFCC0E707490022DA62C1E9012275
:10888000F2E70549F8E70549F6E700BFF00F0020D9
:10889000C0C60020EC100020F810002004110020B9
:1088A00038B51A4D632295F8300100213CF030FFB5
:1088B000B5F85431164D0446333B092200213220CD
:1088C00093FBF0F03CF024FFC0F10903642000FBAF
:1088D0000340AB6884B2990744BF04F57A74A4B22C
:1088E000DA072B6844BF04F5FA64A4B25B070AD523
:1088F000152029F00BFC30B16B6813F4016F04BF35
:1089000004F57A64A4B2204638BD00BFF00F002001
:10891000C0C6002008B5164B9FED167AB3F8B621F5
:1089200007EE902AF8EE677A2DED028BC7EE878A64
:10893000B5EEC00AF1EE10FA57BF93F8B33193F9D0
:10894000B4315B425BB207EE903AB0EE408AF8EE8B
:10895000E77A9FED090A27EE800A3DF035FBDFED4F
:10896000077AE8EE807A88EE270ABDEC028B08BD14
:10897000F00F00200000C84235FA8E3C00000000D5
:1089800010B5304C2DED028B04F5A363D3ED008AB6
:1089900008EE100A0CF0F2FC90ED020AD4EDA27A77
:1089A00094F8EC3138EEC00A20EE270A002B3ED0B6
:1089B000B4F880315A4207EE903A00EE902AB8EEB1
:1089C000671AF8EEE00A3CF093FE9FED1F7A84ED03
:1089D000B20AF8EEC87A1D4C67EE877A9FED1C7AD2
:1089E000D4ED000A27EE877A70EE606AB1EE476A2E
:1089F000B4EEE66AF1EE10FA1CDB9FED167AB0EEEB
:108A0000601AA7EE871AE7EEC70A3CF071FE84ED04
:108A1000000A94ED000A41F007F80F4947F6FF728B
:108A20003CF076FEBDEC028B0C4B988610BDB4F882
:108A30007C31BFE7B4EEE67AF1EE10FAE7D89FEDAD
:108A4000087ADCE7F00F0020BD37863514150020CA
:108A50000C22C4420C2244445A80FFFFE82000202C
:108A60008F2AF54338B50E4C94F83D1084F8390040
:108A700001F03F018B1C01F10A0584F83B3084F8BA
:108A8000385004F13600083120F082FC254485F886
:108A9000340094F838301C44000A84F8350038BD9E
:108AA000E82000202DE9F04F4C4ADFF834E183B094
:108AB000C31D03F4FC7300AFD469ADEB030DC7F81D
:108AC00000D025689EF85E30AC4655690E46591CAC
:108AD0006844C9B2AC45E84678609246754603F0F2
:108AE0000F038EF85E1038D1B4F90C2043F0100358
:108AF000002A4146B8BF43F0200301F8023B08F1C9
:108B000001023A60D4E900239B1A396088F80130E9
:108B10003B68D4E90012A0EB03095FFA89F9521A05
:108B200009F107035FFA82FB03F4FC73CB45ADEB5D
:108B3000030D18D34A46684643F0DAF823684B44DD
:108B400023604A46694638463BF0EDF84046B04758
:108B500001200C37BD46BDE8F08F0DF101023A60EF
:108B60008DF80030D4E75A46684643F0C1F82368D0
:108B70005B4423605A46694638463BF0D4F8DAF83D
:108B80001C20DAF814302168127AC4E90031CB1ABB
:108B90005340DBB285F85F3000202268914212D149
:108BA00008B185F85F303B6895F85F20591C396043
:108BB0001A700021D7E900239B1A012B09DC4046DB
:108BC000B0470020C5E7501C2060127801205340B8
:108BD000E3E7531C3B601170ECE700BFF00F00208F
:108BE000E82000202DE9F04F644C654E83B0E26927
:108BF000D2E900239B1A002BC4BF002386F8603003
:108C000096F8603000AF73B95E4A226102F18305C5
:108C1000A56102F19305C6E97D55C6E9392202F244
:108C200093126561E2610144421CE160A260027836
:108C3000A5695109012905D000210846FFF758FB15
:108C4000012048E002F00F0A12F0100237D0831C16
:108C5000A360C31C90F801C0A36000228378AA819E
:108C600022692B812A6083EA0C0362446A6086F8D9
:108C7000043286F86010D5E90032A2EB0309D4E98A
:108C80000282A2EB08025FFA82FB0BF107035FFA94
:108C900089F903F4FC73D945ADEB030D1FD35A4694
:108CA0004146684643F024F808EB0B01A1605A46A0
:108CB000694628463BF037F886F805A20AE0002B03
:108CC0005AD096F80532013303F00F035345D2D042
:108CD00086F8602000200C37BD46BDE8F08F4A467C
:108CE0004146684643F004F808EB0901A1602846B4
:108CF00069464A463BF017F823692868C5E9003001
:108D000096F8043200212A68904210D109B186F801
:108D10000432A368197896F8043299424FF00003A0
:108D200086F8603009D0B5F90810012086E7511C9B
:108D30002960127801215340E5E72169A069C5E95E
:108D40000012E16962694A600B818B813A1D7B6088
:108D50002CF03CF9013005D1E2691368591C11600F
:108D600002221A707B680BB100209847E3696269A0
:108D70001968C3E9002163E71846ACE7F00F00204B
:108D8000E82000204921002070B51F4C94F80612FD
:108D90000A2200230926651895F807524DBB0BB12E
:108DA00084F8061203685A1C02600C221A700368C9
:108DB0005A1C026000221A7003685A1C0260197063
:108DC00001EB410301EB8301104B0D2219443AF0F2
:108DD000AAFF94F80632E2180120034482F8070241
:108DE0000922B3FBF2F202EBC2029B1A84F80632AC
:108DF00070BD013AD3D00131B1FBF6F303EBC303ED
:108E0000C91AC9B22B46C6E7E8200020F822002084
:108E100008B5002029F036FCB0FA80F0400908BD02
:108E20002DE9F3471F462A4B1546B3F98642B3F89E
:108E300088A20A2294FBF2F4B3F88C22A4B2A242D4
:108E40001E460FD1B3F88E2252450BD1D3E9A4238D
:108E5000B5EB020867EB03091E4A00234B4508BF28
:108E6000424533D2036801905A1C026034221A70C2
:108E700003685A1C026000221A7021463AF07BFFF8
:108E8000019851463AF077FF019847F6FF713AF0A2
:108E900072FF019847F6FF713AF06DFF019847F6AF
:108EA000FF713AF068FF019847F6FF713AF063FFEF
:108EB00001980221FFF772FCC6E9A457A6F88C427C
:108EC000A6F88EA2012002B0BDE8F0870020FAE7E4
:108ED000E820002080841E00294AF8B5D36913F0E9
:108EE000800304464AD0936813F0020346D0254F0E
:108EF00097F83001052841D9632888BF6320FFF720
:108F00003DFB214BC5B2D7F83C0190FBF3F080B29A
:108F1000FFF734FBB7F84C31C6B24FF4F36013FBE4
:108F200000F34FF47A7093FBF0F342F20F709BB2B0
:108F3000834298BF1846FFF721FB23685A1C226022
:108F400017221A7023685A1C226000221A7081B2FC
:108F500020463AF010FF4FF0FF3120463AF0F7FE7E
:108F600023685A1C22601D7023685A1C2260204608
:108F70001E700621FFF712FC0120F8BD0020FCE75F
:108F8000C0C60020F00F0020A08601002DE9F04FA0
:108F90004D4AD36913F0800385B0044600F09280F7
:108FA000936813F0020300F08D80484E96F830313C
:108FB000052B40F28780D6F8340103A9FFF7F2FAB7
:108FC000BDF80C00FFF7DAFA8346BDF80E00FFF794
:108FD000D5FA03A940EA0B4BD6F83801FFF7E2FABD
:108FE000BDF80C00FFF7CAFA8246BDF80E00FFF785
:108FF000C5FAD6F83C51364A85EAE5730A2740EAB5
:109000000A4AA3EBE573B3FBF7F3B3FBF2F002FB01
:10901000103080B2FFF7B2FA81B2B6F84E0101917A
:10902000FFF7ACFA1FFA80F9B6F85401B0FBF7F07D
:10903000632828BF6320FFF7A1FAD6F83471D6F869
:109040003831244A0199002FD4BF00270127002B73
:10905000CCBF022600269342CCBF04230023226803
:1090600000935FFA80F8501C206016201070226870
:10907000501C20600020107020463AF07CFE5946BB
:1090800020463AF064FE514620463AF060FE4946DA
:1090900020463AF070FE2268009B2D16511C25F0E8
:1090A0007F0521606DB282F800801F4322683D4336
:1090B0002E43511C46F0380621600120167005B081
:1090C000BDE8F08F0020FAE7C0C60020F00F0020B6
:1090D000A0860100FFC99A3B03685A1C10B50260C4
:1090E0007E221A7003685A1C026000221A704FF622
:1090F000FF7104463AF021FE0B4B93F82E3083B1FA
:109100001DF0A6F9014620463AF017FE204647F624
:10911000FF713AF012FE20460821FFF73FFB0120C5
:1091200010BD1DF04DF9EDE7F00F002008B527F058
:10913000C5FB074A126A120606D430B9054B93F8EC
:109140009D02003818BF012008BD0120FCE700BFC8
:10915000C0C60020E82000200D4890F89B3207EEA2
:10916000903A012380F8A833F8EE677A00234FF491
:10917000FA62C0E9EB3280F8B433C0F8B8330023A8
:10918000C0EDEF7AC0F8C03300F571703CF0ACBAB6
:10919000E820002070B50C4ED6F828340546DC8E49
:1091A00023F0D4FF8442094C05DD25B9D6F82834D4
:1091B000DB8E638570BDA36843F08003A36023F05A
:1091C000C5FF6085F6E700BFE8200020C0C600208C
:1091D00008B50020FFF7DEFF002008BD70B5064689
:1091E0000D46FFF715FE0446D8B90120FFF7D2FF60
:1091F00030462946FFF7ACFA0B4B0C4AB3F8CA319C
:10920000984203D982F82C44012070BD181A41F20B
:10921000873398428CBF0023012382F82C342046E8
:10922000F3E70420F1E700BFF00F0020E820002062
:1092300010B5FFF7EDFD70B90B4BD3F82834DC8E79
:1092400023F084FF84420DDC084B93F8D621084BB1
:1092500002205A7510BD0120FFF79CFF044B00202F
:109260005875F7E70120F5E7E8200020F00F00200F
:10927000C0C6002008B52DED048B9FED178AF0EED7
:10928000418AB0EE619AF0EE429AF0EE481AB7EEDB
:10929000002AB0EE601AB0EEC00AF0EE480A3CF0C8
:1092A000BFF9F0EE480AB7EE001A3CF021FAB0EE32
:1092B000691AF0EE490AB0EE682AF0EE481A3CF05E
:1092C000AFF9B0EE681AF0EE480ABDEC048BBDE8C9
:1092D00008403CF00DBA00BF0000000030B52DED95
:1092E000028B83B005460191FFF792FD04460028EA
:1092F00047D101992846FFF72BFA40F2DC539842F8
:1093000007D92046FFF746FF012003B0BDEC028BD2
:1093100030BD07EE900AB8EEE78A23F017FF1A4B2C
:109320009FED1A1AD3F82834DFED190ADB8E194D98
:1093300007EE900A02EE103AF8EEE71AB8EE422A6B
:10934000B0EE480A3CF06CF9BDEEC00ADFED101A31
:109350009FED0E1A10EE103A6B850F4B93F8D63135
:1093600002EE103AF0EE610AB8EE422AB0EE480A78
:109370003CF056F9FCEEC07A204617EE903A6B7539
:10938000C3E70420C1E700BFE82000200080BB4401
:1093900000000000C0C60020F00F00202DE9F041C1
:1093A0000F4E104C06F533703DF09AFB04F58667BE
:1093B00041F21C1304F2344400254FF0000806F576
:1093C000457026F803803D6025603DF089FB41F241
:1093D0001E133D6026F803802560BDE8F08100BFC4
:1093E000F00F0020E82000202DE9F0412DED028B48
:1093F0002A4F2B4E82B008EE100A23F0A7FED7F8B2
:109400002834B7F838549B8DC01AED1A06F224534D
:1094100093ED000A04B28DED010A0BF0AFFFB8EE38
:10942000C81ADFED207AD0ED050A9DED010A2DB2B4
:1094300021EE271A07EE905AB8EEE72A07EE904A77
:109440000021F8EEE71A06F557708DED001A3EF090
:10945000F1FBBDEEC00A41F2221810EE103A1BB229
:1094600007EE903A9DED001A26F80830B8EEE70AAC
:10947000F1EE000A07F244403DF03EFBBDEEC00AAB
:109480002A4610EE103A214618B23CF041F926F86F
:10949000080002B0BDEC028BBDE8F081E82000209E
:1094A000F00F0020BD3786352DE9F0432DED028BFE
:1094B0002E4F83B0FFF74CF9B7F8CE61B0420446A7
:1094C00052D829F0A4FA054600284DD1DFF8A8802B
:1094D000D8F82834B3F8389023F038FEB8F8382498
:1094E000014648463CF014F907EE904A204CDFED67
:1094F000210AB4F92A30B8EEE78A02EE103A07EEF4
:10950000906A83B201EE903AB8EE671AB8EEC22ABA
:10951000F8EE611AB0EE480A8DED011A3CF080F8C1
:10952000BDEEC00A9DED011ADFED120A10EE103AF1
:109530006385B4F9263002EE103A97F8D63101EE81
:10954000903AB8EEC22AF8EE611AB0EE480A3CF042
:1095500067F8FCEEC07A284617EE903A637503B0C0
:10956000BDEC028BBDE8F0830120F8E7F00F00208E
:10957000C0C6002000000000E820002010B51946F9
:1095800004461046FFF7E4F8064BB3F8D031204408
:10959000984204D929F03BFA00F0010010BD0020E8
:1095A000FAE700BFF00F0020F8B51D4CD4F82834BE
:1095B0000E461D8F074623F0C9FDB4F83824194C18
:1095C000014628463CF0A4F8174BB4F8D45158850E
:1095D00065B10BF0D3FE07EE905A90ED027AF8EEEB
:1095E000E77AF4EEC77AF1EE10FA14D9B4F8C801AC
:1095F000B4F8CC113A4633460844FFF7BFFF60B9D0
:1096000038463146FFF7A4F8B4F8D231984294BFF7
:1096100000200120F8BD0120FCE70320FAE700BF8D
:10962000E8200020F00F0020C0C600202DE9F743FD
:10963000284F0191024605460B46B7F8C801FFF7CF
:109640009DFF0446002843D10199DFF89480284605
:10965000FFF77EF8B7F8CC911F4FD7F828340646AD
:109660001D8F23F073FDB7F83824014628463CF0DF
:109670004FF84E45054605D9A8F82A00012003B049
:10968000BDE8F08323F062FDABB202EE103AD7F8EA
:109690002834DFED120ADB8E8342B8BF034607EEA3
:1096A000909A9BB201EE903AB8EE671A07EE906A74
:1096B000B8EE422AF8EE611AB8EEE70A3BF0B0FFC6
:1096C000BDEEC00A204610EE103AA8F82A30D6E7C0
:1096D0000320D4E7F00F0020E82000200000000065
:1096E000C0C6002038B505460C460020FFF752FDE5
:1096F0002A4623460020FFF741FF58B92846214655
:10970000FFF726F8044BB3F8C831984294BF002005
:10971000012038BD0320FCE7F00F00202DE9F84FB1
:109720002DED048B80460F46FFF772FB00287AD19F
:109730003E4B9FED3F7AD3ED0D7A3E4E93ED0E8A70
:10974000F0EEE76AF4EEC76AF1EE10FACABF93EDE5
:109750000F7A9FED399A87EE279A9A4627F09CF860
:1097600096F8D731F0EE408A00EE103ADFED337A0A
:10977000B8EEC00A20EE270A3CF0AEFBB6F8C431C2
:1097800007EE903AF8EEE77AB4EEE78AF1EE10FAD7
:109790003EDDF4EEC08AF1EE10FAACBF01240024E5
:1097A000B6F8C2B107EE90BAF8EEE77AF4EEC97AED
:1097B000F1EE10FA2ED5B5EEC08AF1EE10FACCBF5C
:1097C0004FF001094FF0000917F03CF9054650B180
:1097D000B6F94C319B4520DAB5EEC08AF1EE10FAAD
:1097E000CCBF01250025002044EA0904FFF7D2FC84
:1097F0002C4314D040463946FEF7AAFFB6F8C631CE
:10980000984294BF00200120BDEC048BBDE8F88F86
:109810000024C5E74FF00009D6E70025E3E7CAE9D1
:1098200003872046F0E70420EEE700BFC0C6002013
:10983000F366DF3FF00F00200000000035FA8E3C99
:1098400000F01F024009012302389340032816D874
:10985000DFE800F0110C0207094A116B0B43136398
:109860007047074A516B0B4353637047044A116CAE
:109870000B4313647047024A516C0B4353647047A7
:10988000003802402DE9F047041E0D4612DB092C7A
:1098900026DC824A0B468248A0FB0410C00800EB7D
:1098A0008000A4EB40000021125C1A705970284619
:1098B000BDE8F08764422D23092C01F8013B24D830
:1098C000764A774BA3FB0403DB0803EB8303A4EB8B
:1098D00043030020D35C48700B702846BDE8F08736
:1098E0006F4B632CA3FB04264FEAD60621DC6B4AA0
:1098F0000B466B49A1FB0601C90801EB8101A6EBF0
:109900004101515C03F8011BC5E7654A632CA2FBCA
:1099100004364FEAD60637D8604A614BA3FB0603EC
:10992000DB0803EB8303A6EB4303D35C01F8013BA5
:10993000C7E7A3FB0627B4F57A7F4FEAD7070DD216
:10994000564A0B465649A1FB0701C90801EB8101A4
:10995000A7EB4101515C03F8011BCAE7A3FB0728F1
:1099600042F20F7294424FEAD80836D84B4A0B465F
:109970004B49A1FB0801C90801EB8101A8EB41019A
:10998000515C03F8011BDDE7A2FB0637B4F57A7FD3
:109990004FEAD7070CD2414A414BA3FB0703DB0830
:1099A00003EB8303A7EB4303D35C01F8013BB4E76C
:1099B000A2FB073842F20F739C424FEAD80821D825
:1099C000364A374BA3FB0803DB0803EB8303A8EB02
:1099D0004303D35C01F8013BDEE7324AA3FB0809ED
:1099E00094424FEAD90921D82C4A0B462C49A1FBB5
:1099F0000901C90801EB8101A9EB4101515C03F8A0
:109A0000011BB5E7274BA2FB08099C424FEAD90985
:109A100021D8224A224BA3FB0903DB0803EB830373
:109A2000A9EB4303D35C01F8013BCAE71E4AA3FB41
:109A3000090394424FEAD30A21D80B461849174A22
:109A4000A1FB0A01C90801EB8101AAEB4101515CAC
:109A500003F8011BCAE7144BA2FB09029C424FEA20
:109A6000D20A13D80E4B0D4AA3FB0A03DB0803EB03
:109A70008303AAEB4303D35C01F8013BCAE70A2244
:109A8000BAFBF2F039F036F90346D7E70A22BAFBFF
:109A9000F2F039F02FF90146E4E700BFD47A050867
:109AA000CDCCCCCC9F8601003F420F002DE9F04782
:109AB00088B0002506460F4603921C46A846039B25
:109AC0005A1C03921978002940D0252905D0731C0F
:109AD00001D03046B8470135F1E79A1C0392CDF822
:109AE000108058782D2801BFDA1C039298784FF027
:109AF000010A18BF4FF0000A302801BF039B5A1C0F
:109B000003921878A0F13003DBB20CBF4FF00109CB
:109B10004FF00009092B09D804AA03A9FEF7B2FAED
:109B2000BAF1000F02D0049B5B4204936C2840F012
:109B30008080039B5A1C03921A78642A3FD013D862
:109B4000252A00F0818005D8002AB8D1284608B01F
:109B5000BDE8F087582A38D0632AB0D1721CBAD039
:109B600054F8041BC9B2B4E7662A55D0A2F16E03BB
:109B7000D9B20A29A3D80A2BA1D801A151F823F000
:109B8000119C0008BF9A0008BF9A0008BF9A0008FD
:109B9000BF9A0008F79B0008BF9A0008AD9B000819
:109BA000BF9A0008BF9A0008CB9B000854F8040B2A
:109BB00005A9FEF725FA05ABCDE900931FE054F89F
:109BC000040B05A939F0AEF8F5E7A2F158004242BE
:109BD000424105AB54F8040B102139F0E7F8EAE7ED
:109BE000A0F158014A424A4154F8040B05AB102138
:109BF00039F0DCF8DFE754F8043BCDE90083049B3F
:109C00003A464FF0FF3130463AF084FF054456E7BC
:109C100054F8043B1D6052E7073424F00704F4E8CD
:109C2000020144F0C7F900EE100A05A838F09AFDC9
:109C3000C1E76628F0D017D85828D1D009D8002815
:109C400084D025287FF43BAF731C3FF444AF25211B
:109C50003FE7632882D064287FF431AF54F8040BC7
:109C600005A939F05FF8A6E7A0F16E03DAB20A2A77
:109C70003FF625AF0A2B3FF622AF01A252F823F0A0
:109C8000119C0008BF9A0008BF9A0008BF9A0008FC
:109C9000BF9A0008F79B0008BF9A0008AD9B000818
:109CA000BF9A0008BF9A0008E19B000882B0002319
:109CB0000193019B43F020030193019B60F38A13FE
:109CC0000193084BD3F86024019B1361064B116983
:109CD0000191013B02D001998906F8D4002002B01D
:109CE000704700BFE8200020410D030010B580211F
:109CF00004463EF062FB204600213EF05EFB20461B
:109D0000BDE810403EF07FBB70B50022013813461D
:109D10000132845C002CFAD1DBB20C4A01335B00C7
:109D20000B8082F8483A032382F8493A022310F85C
:109D3000015F05B970BD591CD61852FA81F1023382
:109D400086F8485ADBB281F8484AF0E7E82000205C
:109D500070B5124B124C9C4219D2627982421BD1CF
:109D60002279012A18D1E679B6B925687DB1142285
:109D70003146281D42F0F4FD2C6023792B71A27925
:109D8000AA60227AEA60012B03D0022B01D00020C6
:109D900070BD2E602E71FAE70C34DCE7A0010008DC
:109DA000A00100082DE9F04790B0DDE9184A0D4602
:109DB0000746904600213C2201A899461A9E42F08F
:109DC000CFFD344B02938DF80450CDF834A0002D14
:109DD00054D0022D54D0032D54D0042D54D103233C
:109DE0002D4A02EB43035B788DF805302B4B03942F
:109DF000D3F8882B069714440122CDE904468DF848
:109E000031201E46B8F1000F06D04A46414607A849
:109E100041F06EFF8DF8309096F88EEB0023BEF186
:109E2000010F0E931FD80DF1040ABAE80F0096F83F
:109E30008DCB3C2404FB0C6404F539640FC4BAE8F0
:109E40000F000FC4BAE80F000FC49AE80700BCFA6D
:109E50008CFC0EF1010E4FEA5C1C84E8070086F8CA
:109E60008EEB86F88DCB3B6883B14B464246294644
:109E7000384610B0BDE8F04720F0F0BC2B46AFE705
:109E80000123ADE70223ABE70023ADE710B0BDE847
:109E9000F08700BF2F2C002038070508E82000209D
:109EA00070B51C4C94F8345575B3D4F83C650B6808
:109EB000DFED196A9B1B07EE103AD4F840654B683A
:109EC000B8EEC77A9B1B27EE267A07EE903A04F588
:109ED000A76380ED007A93ED007A8B68012AF8EE93
:109EE000E77A27EE267A18BFD4F8442567EE877AFA
:109EF00018BF9B1AC0ED017A07EE903AF8EEE77AA8
:109F0000C0ED027A284670BD002303604360836081
:109F1000F8E700BFF00F00202C7D8E3F70B51E4D7E
:109F200095F834352DED028B04460E4673B3D5F803
:109F30003C350360D5F840354360D5F8443583603F
:109F400005F5A76393ED008ADFED148A96ED000A0C
:109F500080EE280A3FF068FD23681844206028EE50
:109F6000288A96ED010A80EE080A3FF05DFD6368DD
:109F70001844606096ED020A3FF056FDBDEC028B7E
:109F8000A3681844A06095F8340570BDC0E900339B
:109F90008360B7EE008AD7E7F00F00202C7D8E3F5C
:109FA00000230360704738B50BF0E8F90A4C05460A
:109FB00004F557703CF094FD04F569703CF090FD99
:109FC00041F222130022E25204F224546B6923600E
:109FD0000248BDE83840E3E7F00F00202C250020C0
:109FE00030B4174B1749C3F8281C03F5446500210A
:109FF0001224154A154883F8104C83F80C1C42F6BD
:10A00000F82403F54161C3F8385C0025C1E9024535
:10A01000C3F82C0C30BC0120C3F8402CC3F8442CEE
:10A02000C3F8482CC3F84C2CC3F8502CC3F8542C5C
:10A03000C3F8582CC3F85C2CC3F8602C704700BFE1
:10A04000E820002089250208E003E00395250208A6
:10A05000074B084AC3F8282CD3F8383C4FF47871E2
:10A060009A1E223322F8021F9A42FBD1704700BF8A
:10A07000E8200020C939020870B5244E244BC6F8E8
:10A08000283C11244FF4787506F668434FF4787035
:10A0900086F8104C4FF47874C3E90045C3E90245D3
:10A0A000C3E90445C3E90645C3E90845C3E90A45D0
:10A0B000C3E90C45C3E90E451649C6F8A80C84B09F
:10A0C00006F5416241F60B2400254020C2E9024515
:10A0D000C6F82C1C20F0C6FFB0B196F8B33C0E4A6F
:10A0E00090F904000092012B0CBF082200220323E8
:10A0F000CDE901324021094A002320F0EBFFC6F8E8
:10A10000CC0C003818BF012004B070BDE82000203E
:10A110000D2D0208FD2D0208A0680600B199020865
:10A1200010B5084C582204F14400002142F018FCFC
:10A13000054A064B92F8D12C83F821200020A4F880
:10A14000580010BDC0C60020E820002000000020FC
:10A1500070B50E4C05460C2694F8E43C022B01D950
:10A16000002011E05A1C06FB034384F8E42CD3F8CA
:10A17000E82CD107F0D51542EED093F9EC0C20F085
:10A1800091FF0028E8D0406870BD00BFE8200020A3
:10A19000D0ED017AC0ED020AF5EE407AF1EE10FA48
:10A1A00002BF9FED0B7AF0EE477A80ED017A30EE38
:10A1B000A77AD0ED007AC0EE876A30EE670AC0ED6C
:10A1C000036AE6EE807AB0EE670AC0ED007A704767
:10A1D00083F9223E80EAE073A3EBE0738B420ADB53
:10A1E00000280ADD431A4FF4FA72501A02FB03F3F7
:10A1F00093FBF0F0704700207047FDD000F5FA7334
:10A200004FF4FA70411A00FB03F090FBF1F0A0F557
:10A21000FA7070470B6810B414681B1B0360546815
:10A220004B681B1B43608B6892685DF8044B9B1A5C
:10A230008360704730B50468E46985B02CB10DF1D6
:10A240000F050095A04705B030BD2046FBE708B5D7
:10A25000064836F068FD064837F042FC054B93F897
:10A26000102D12B1012283F8112D08BD7F7B050846
:10A270008B7B0508E82000202DE9F04F87B0DFF840
:10A28000A8B004910646174698460025002F07DB24
:10A29000AF4205D00135042DF8D107B0BDE8F08FED
:10A2A0004FF4827303FB05F9049B03EB090A1D4B72
:10A2B00000249944B8F1000F01DBA0452ED139F8F4
:10A2C00014303AF81410CA1A5142514113F4005F85
:10A2D00003F03F02C3F3851014BF56234823CDE992
:10A2E0000203CDE900422B465A463046059136F02E
:10A2F000DBFF3AF81430059913F4005F03F03F02D6
:10A30000C3F3851014BF56234823CDE90203CDE9DA
:10A3100000422B465A46304636F0DCFF0134822C90
:10A32000C8D1B7E7FA2D0020987B050807B50C4681
:10A33000054620F097FC204620F094FC00210846BA
:10A3400036F0A1FA0021012036F09DFA284636F0B9
:10A350005CF9A8B10121002036F095FA284636F0C4
:10A360004EF901462046019136F04CF9019900283A
:10A37000F8D0204636F04CF90021084636F083FA32
:10A38000204636F042F90028E0D00121002036F0C6
:10A390007AFA204636F033F901462846019136F024
:10A3A00031F901990028F8D0284636F031F900211A
:10A3B0000846C9E710B4404A92F85930D2F8A400D0
:10A3C000023BD2E92714062B74D8DFE803F05A5C6D
:10A3D00060500655040064424942404280EAE073FE
:10A3E000A3EBE07306EE903A84EAE473A3EBE47324
:10A3F00007EE103AF8EEE66A9FED306AB8EEC77ADB
:10A4000026EE866A81EAE173A3EBE17307EE903AE8
:10A41000B4EEC76AF1EE10FAF8EEE77A04DDB4EEB6
:10A42000E76AF1EE10FA34DC9FED246A27EE066A43
:10A43000B4EEE76AF1EE10FA04DDF4EEC66AF1EE6E
:10A4400010FA2DD49FED1D6A67EE867AB4EEE77A96
:10A45000F1EE10FA2BD5F4EEE76AF1EE10FA26D5FC
:10A460000029CCBF042005205DF8044B70474B4207
:10A47000404221461C46B1E7634240420C46194621
:10A48000ACE74942AAE74B4261421C46A6E7644258
:10A49000A4E70028CCBF002001205DF8044B7047E2
:10A4A000002CCCBF022003205DF8044B70474FF016
:10A4B000FF30D9E72346E1E7C0C60020ABAA2A3F18
:10A4C00037B5284CDFED286A94F82A20E56C04EBB8
:10A4D0004201013202F00F0284F82A20234A8B8DB8
:10A4E000888592F8B51C92F8B62C07EE101AB8EED3
:10A4F000C77AC31A27EE267A2B44FDEEC77AE364A7
:10A5000017EE901A07EE902AF8EEE77A1B0967EE2D
:10A51000A67AA4F85030FDEEE77A17EE902A914221
:10A520000FDD9BB29A42D4BF9B1A00239942A6BF6B
:10A53000CB1A9BB20023A4F850300B4617EE901AAA
:10A540001A4640F2FF35B4F85000009500233BF066
:10A5500075F82A4600213BF0DBF8A4F8500003B060
:10A5600030BD00BFE031002014AE2341E8200020C0
:10A570000548436D3BB1054BC0F83031044A5430B7
:10A58000012120F07ABB7047E0310020CD4F030855
:10A59000559C01082DE9F04F2DED028B87B0044644
:10A5A000324D039310460E46B0EE408A174642F0F5
:10A5B00047FDD5F834B19DF848A0DBF800308BF8A2
:10A5C0000B604FF0000820448BF80A00CDF80080A3
:10A5D00058463246D3F814B09DF84C903B4621467D
:10A5E000D8479FED230A039B019328EE000A5346A8
:10A5F000FDEEC07ACDF8008017EE901A424604A80E
:10A6000011F0C0FFD5F8383113B11B784B452AD073
:10A61000D5F8443113B11B784B4524D0D5F85031CF
:10A6200013B11B784B451ED0D5F85C31CBB11B78EC
:10A63000A3EB0909B9FA89F94FEA5919384642F0EA
:10A64000FFFC01340444E1B2D5F83401CDF80090A8
:10A6500004AB324636F04CFA07B0BDEC028BBDE8D5
:10A66000F08F9946EAE74FF00109E7E7E031002073
:10A670000000C84230B51C7814B1012C05D030BDA3
:10A680009A780270DB780B70F9E7B3F9024052B1A7
:10A69000157B94FBF5F40470B3F904302AB1527BB6
:10A6A00093FBF2F3EFE70C25F3E71222F8E730B55E
:10A6B0001C7814B1012C0FD030BD9D7842B1147BB1
:10A6C0006C430460D8782AB1537B43430B60F3E7B3
:10A6D0000C24F5E71223F8E7B3F902200260B3F97E
:10A6E0000430F3E710B5274B93F8B43182B0044639
:10A6F000042B13D8DFE803F0140303142E00032304
:10A700004FF47A72CDE90033002311F03BFF0028AB
:10A7100014BF7E227A220023E270237102B010BDA2
:10A7200007EE901A9FED187AF8EEE77A032367EEAA
:10A73000877ACDE90033FDEEE77A4FF4A55217EEA4
:10A74000901A002311F01EFF002818BF802208BFB6
:10A750007F22E0E707EE901A9FED0B7AF8EEE77A9A
:10A76000032367EE877ACDE90033FDEEE77A41F205
:10A77000BC7217EE901A002311F004FF002818BFD6
:10A780008122E4E7E031002048F9514037B50C461A
:10A79000054601920DF0A2FE019B2246294636F0A5
:10A7A00059FA094A92F9CC3102EB430101335BB209
:10A7B000352BC8BF0023012081F8CD5181F8CE414F
:10A7C00082F8CC3103B030BDE031002070B52DED02
:10A7D000088B0AF0D3FDA54ED0ED027A96ED008AE3
:10A7E000DFEDA39ADFEDA3AAA34C78EE677A9FED85
:10A7F000A38A87EEA99AA6F5AF65B5F8B63107EE3C
:10A80000903AB4EE489AF1EE10FA48BFB0EE489A8A
:10A81000B4EEC89AF1EE10FA56BF95F8B33195F937
:10A82000B4315B42F8EE677A58BF5BB2C7EEA98AD3
:10A8300007EE903AB8EEE70A20EE2A0A3BF04CFB0E
:10A840008F4BB3F9AC3007EE903AF8EEE77AB2EE00
:10A85000047A87EE87AAB0EE40BA38EE4A0A20EEB4
:10A860002A0A3BF039FB20EE088AB0EE490AA8EE2E
:10A870008B8AFEF74FF8D4ED8F8A95F8643128EE75
:10A88000008AF8EE688A002B00F0E780B5EEC09AE7
:10A89000F1EE10FA40F3E180B4F9403207EE903A5D
:10A8A000F8EEE77A3AEE67AA2AEE2AAAB0EE4A0A4A
:10A8B0003BF08AFB20EE28BAB0EE4A0A3BF00CFBD4
:10A8C000A0EE688A28EE088AABEE0B8A18EE100A12
:10A8D00043F048F841EC100B3FF0ECF951EC100B51
:10A8E00043F068FB08EE900AB5F8B63107EE903AEF
:10A8F00094F84232F8EE677A0B2BC7EEA9BA11D161
:10A9000029EE290A3FF090F828EEA90AC4F844027B
:10A910003FF08AF82BEEA90AC4F848023FF084F809
:10A92000C4F84C02F5EEC0BAF1EE10FA40F298808D
:10A93000B5EEC09AF1EE10FA56BF95F8B33195F81E
:10A94000B4315B4200EE103AB8EEC00A22F028FCA7
:10A95000B0EE408AB0EE490AFDF7DCFF95F86331AE
:10A9600028EE000A9FED478A052B80EE08AA88EEA4
:10A97000ABBAB0EE489A0CD10AF000FDD6ED007AE1
:10A9800090ED020A30EE670AB5EEC00AF1EE10FA59
:10A9900001D59FED3A0AF0EE680A3BF02FFAC0EEBF
:10A9A0002A7A95F8B43100EE103AB8EEC00AF4EE07
:10A9B000C07AF1EE10FA48BFB0EE670A22F0F0FB61
:10A9C0002BEE000A304B80EE098AD3F82824D4F805
:10A9D00064324FF47A71B3FBF1F307EE903AD36827
:10A9E00052699A1A94F87A32B8EEE77A5343274AB2
:10A9F000B3FBF2F307EE903AF8EEE77A38EE0A8A04
:10AA000077EE677A37EEC88AB5EEC08AF1EE10FAB3
:10AA100048BF9FED1A8A31F0A7FCD4F880024FF4AA
:10AA2000B47380FB0301F0EE408A43F0E3FB07EED2
:10AA3000900AC7EEA87AFDEEE77AF8EEE77A87EE9D
:10AA4000A97AB5EE407AF1EE10FA0CD028EE098A18
:10AA500088EE070ABDEC088B70BD78EEC88A43E724
:10AA6000B8EE000AF6E7BFEE000AF3E7681500202B
:10AA70000000C84235FA8E3CE031002000000000A2
:10AA8000C0C6002000006145E8200020A08601002B
:10AA900010B4074991F88722002404600471052A44
:10AAA0005DF8044B28BF052201F5247141F020B95F
:10AAB000E031002010B4074991F887220024048077
:10AAC0008470032A5DF8044B28BF032201F524712A
:10AAD00041F00EB9E031002073B506460D4620F076
:10AAE0002FFE044668B12B88ADF805300422AB7800
:10AAF0008DF804600DEB020174208DF8073020F012
:10AB0000C5FB204602B070BD10B50246041D0020F2
:10AB1000A24200D110BD12F8013B0821584010F0AC
:10AB2000800F4FEA400318BF83F031030139D8B2D8
:10AB3000F5D1EDE70F4B062230B483F8A923242288
:10AB400083F8AA2383F8AB23002283F8AC230A4AB4
:10AB500003F2AD3102F1240452F8045B41F8045BC6
:10AB6000A242F9D1032230BC83F8AF0383F8B023AB
:10AB700015F016BFE031002040070508F8B5184C65
:10AB800094F824340546D4F8EC031BB103791E3B3A
:10AB9000012B02D9002135F03BFD124F0026AE42B9
:10ABA00015DB94F8233423B1D4F8EC03002135F0FD
:10ABB0002FFD0D4BD3F8883BC4F848340B4B0022D3
:10ABC0005A60B4F850340133A4F85034F8BD17F883
:10ABD000011BD4F8EC0335F01BFD0136DFE700BFA5
:10ABE000E031002005360020E82000202836002033
:10ABF000036813F0400004D013F4057F14BF012054
:10AC0000002070472DE9F043244D254C85B005F117
:10AC1000280980460F461646C4F83C9CC4F8385CA8
:10AC2000FFF716FA1F4BC4F82C3C122284F8102CA4
:10AC300004F5416142F6F82200234020C1E90223D5
:10AC400020F010FA044610B3FFF7D2FF98F8002066
:10AC50003F78034694F9040000961C1E14BF03219C
:10AC60000121002A0CBF07220622012F0CBF082356
:10AC700000231A43CDE901124B460B4A402120F034
:10AC800029FAA5F58C652CB9003818BF012005B04C
:10AC9000BDE8F083C5F8C804F6E700BF40360020E1
:10ACA000E820002035230208393A02080348044A04
:10ACB00000F6B34100F6B240A4E700BFE820002050
:10ACC000400D03000348044A00F6B34100F6B240C9
:10ACD00098E700BFE8200020A0860100F0B5A64C50
:10ACE000D4F8CC6494F8D07485B06EB13046FFF7D8
:10ACF0007FFF48B14FBBD4F8C83433B39F4AD36603
:10AD0000012384F8D03420E094F8D104FDF76CFCE2
:10AD1000B842054619D0002800F0D380AEB1974D57
:10AD200096F9040095F82930B3FA83F35B0902938E
:10AD300002214FF41653CDE9003100231A460421B5
:10AD400020F0C8F9E8660028DAD1FDF743FDD4F811
:10AD5000D46494F8D874002E00F0BB803046FFF71E
:10AD600047FF002800F0B5804FB9D4F8C83433B19C
:10AD7000C4F8DC34FDF7E2FA012384F8D83494F8FF
:10AD8000E204FDF731FC94F8E3348342054639D000
:10AD9000002800F0DE80D4F8E434CBB11A7A93F9BD
:10ADA000040003210023002ACDE90113744908BFE0
:10ADB000072201EB82024FF48071D26A00921A4698
:10ADC00020F088F9C4F8E80410B1012384F8E334D2
:10ADD0006A4A6C4B92F8581083F82A1092F859106E
:10ADE00083F82B1092F85A1083F82E1092F85B100B
:10ADF00083F8321092F85C1092F85D2083F83310DB
:10AE000083F8342094F8EC04FDF7EEFB94F8ED346D
:10AE1000834205462AD0002800F0A4804FF4FA713E
:10AE200009201CF049F9D4F8F034FBB11A6802F497
:10AE30001072B2F5107F19D093F904000822032391
:10AE4000CDE901324FF4E133009300231A464FF469
:10AE5000007120F03FF9C4F8F40438B1474B58664C
:10AE6000012384F8ED34002384F8F83494F8F9547D
:10AE70002DBBD4F8FC3413B3032293F904000295DC
:10AE800001921A7A3E4B03EB82034FF40021DB6AF6
:10AE900000932A462B4620F01DF9C4F8000570B136
:10AEA000394BC4F80855D3F8883B84F80C5503F5A2
:10AEB0001C531033C4F80435012384F8F93405B069
:10AEC000F0BD2E4EF06E20F077F8F56684F8D05481
:10AED0003BE794F8E004FDF787FBB84205463FF4F2
:10AEE0004EAF68B3FDF72AFA002E3FF448AF317A2F
:10AEF00021B302291DD1214B93F833200AB9214AED
:10AF00001A660025022396F90400CDE901351C4B91
:10AF100003EB81012A46CB6A009310212B4620F0D7
:10AF2000D9F8C4F8DC0400283FF429AF84F8E154D0
:10AF300022E70129E5D1114B144AE1E70521E0E7B9
:10AF4000D4F8DC0420F038F8C4F8DC5484F8D85481
:10AF500015E7D4F8E80420F02FF8C4F8E85484F892
:10AF6000E3544FE7D4F8F40420F026F8C4F8F4547E
:10AF700084F8ED547AE700BFE0310020F00F0020A4
:10AF80003807050800000020E82000200A00002003
:10AF900013B5084C01900223C4F8103542F050F864
:10AFA0000199C2B2D4F8000502B0BDE8104035F0F6
:10AFB00032BB00BFE0310020084BD3F8082583F8EE
:10AFC0001405052A09D00422C3F80825D3F8102552
:10AFD000022A1CBF0022C3F804257047E03100207C
:10AFE00010B5094A92F836306BB902F13604C15CEB
:10AFF000222904D001330F2B04F8011BF7D113448D
:10B00000002283F8362010BDF00F002038B5214D06
:10B01000044605F1360042F013F895F836302B2B34
:10B02000024609D105381C4900230A46013115782A
:10B030009DB9B3B9002024E0302B0BD195F83730FF
:10B04000A3F13101012903D9362B01D00138EAE7F8
:10B05000901EE8E7382BE6D1F8E70133102B0A46BB
:10B06000E3D1234604F11005194601330C78222C54
:10B0700002D0AB421946F7D10B46CC1AA04201DCF4
:10B08000012038BD13F8015D12F8014DA542F4D03E
:10B09000D0E700BFF00F0020261000202DE9F0437C
:10B0A0002DED028B0F4683B0164620B10378303B5E
:10B0B000012B40F25881DFF82C93DFEDC28A9FED1F
:10B0C000C28A3B78002B3ED036B1C04B3268D3F8F1
:10B0D000883B9A4240F2EA82BD4C94F81555002D07
:10B0E00040F0748294F81605BA4B03EB4003B3F8B2
:10B0F00070306BBB012384F81635B74BDA69110643
:10B100001FD59A68920740F19282B44AB2F84C3146
:10B1100012684FF4F36113FB01F389FB0301DB17A2
:10B12000C3EB611310203021CDF8033008238DF8D4
:10B1300000008DF801108DF8023068460024904719
:10B140003C70002EBDD103B0BDEC028BBDE8F08396
:10B150000130C0B2B3F58C6F84F8160500F0AD81F4
:10B160005AD8B3F5826F00F021823CD8B3F5007F46
:10B1700000F0FD8119D9B3F5047F00F08B81B3F5A0
:10B18000806FDED1FDF7AAF9944BCDF803001021B2
:10B19000002404221B688DF800108DF801408DF802
:10B1A0000220684698473C70CBE7B3F5807F00F0FB
:10B1B000F480B3F5887FC4D1874B1B6A5B07C0D589
:10B1C0000AF0DCF890ED050A3EF02EFC834ACDF83B
:10B1D00003001023012112688DF800308DF8013032
:10B1E0008DF80210A9E7B3F5886F00F0A7813AD96E
:10B1F000B3F58A6FA5D1784BDA691406A1D59A68A0
:10B20000900740F10782754BB3F94E21CDF803202A
:10B21000502110221B683CE0B3F5006F00F06B81F9
:10B2200059D9B3F5046F00F0F9803CD9B3F5116F2B
:10B2300000F0A180B3F5206F83D1674B1B6A9A069B
:10B240007FF57FAF664A654BD2ED057A1B6867EEE6
:10B25000A87A1021FCEEE77A002417EE902ACDF8A8
:10B2600003200A2297E7B3F5846F00F00281B3F55B
:10B27000866F7FF466AF594B93F82D20002A3FF478
:10B2800060AF554A1B68B2F9AA20CDF803203021DF
:10B2900010228DF8002004228DF801108DF8022074
:10B2A000684600247EE7B3F5026F35D14A4BDA6970
:10B2B00011067FF546AF9A68920740F1B381474B7C
:10B2C000D3F83C21CDF8032010228DF800201B6814
:10B2D00020210822E0E7B3F5E26F00F0858023D952
:10B2E000B3F5E46F7FF42DAFDFF8F08098F82D30E0
:10B2F000002B7FF426AF384B93ED1A0A20EE080A94
:10B300003EF092FB10228DF80020D8F80030CDF8E6
:10B31000030020210722BFE7B3F5036F3FF4EDAE32
:10B32000002E7FF4CEAE0EE7B3F5C06F00F0908034
:10B33000B3F5E06F7FF405AF284D95F82D40002C54
:10B340007FF4FFAE244B93ED180A20EE080A3EF07E
:10B350006BFB10212B68CDF8030007228DF801400C
:10B360008DF800101BE701300621FDF73BFC184B60
:10B3700083F815059FE6184BDB6999077FF5E1AE69
:10B3800094F817451CB11BF01BF8B0FBF4F4134AFA
:10B39000CDF80340102309211DE70F4B1B6A590705
:10B3A0007FF5CFAE09F0EAFFD0ED027A0B4BFCEE51
:10B3B000E77A102117EE902A0024CDF8032001220D
:10B3C000E8E600BFB80C473E0000C842E820002075
:10B3D000E031002038070508C0C60020F00F00202B
:10B3E000003700201F85EB51B64D95F82D40002CFD
:10B3F0007FF4A7AEB44B93ED190A20EE080A3EF095
:10B4000013FB10230721CDF803002A688DF80030C4
:10B410008DF801308DF80210684690E6AA4BA949D4
:10B42000B3F9AC30096803EB83035B00CDF803305C
:10B430004020082310248DF801008DF800408DF87D
:10B440000230684688473D70002E7FF43AAE7AE6B7
:10B45000DFF8708298F83130002B40F0C4801AF089
:10B46000BDFF00241021CDF803000622D8F80030DB
:10B4700091E6954BDA6912067FF563AE9A689507F7
:10B4800040F10A81D4F83C22CDF803208D4B1022E4
:10B490002021BFE68C4BDB699D077FF552AEDFF8BC
:10B4A000248298F82E30002B00F0E78094F817459E
:10B4B000002C40F002812046E7E0834BDA69120657
:10B4C0007FF53FAE9A68950740F1D280B4F94022EB
:10B4D000002AC0F2E68093B2B32ACCBFB43BB433A7
:10B4E0001BB2784803EB83035B00CDF803301022D6
:10B4F00003686021CDE6744BDA6915067FF521AE4D
:10B500009A68940740F1AF80C30700F19880DFF894
:10B51000B481D8F8342182EAE273A3EBE27303EB3F
:10B520005303A9FB0313DB08002AB8BF43F0804391
:10B5300010210024CDF80330082297E7614B93F8DF
:10B540002D1000293FF4FDAD5F491B68B1F9A8102B
:10B55000CDF80310402010218DF800108DF8010067
:10B5600004218DF80210684698473D706CE7564BF1
:10B57000DB6918057FF5E5AD94F87032002B3FF4D8
:10B58000E0AD524B5249B3F986324E4C8DF8015022
:10B5900081FB0321DB17C3EBA1031BB21020CDF805
:10B5A0000330022123688DF80000DAE7464BDA69A0
:10B5B00015067FF5C6AD9A68940727D5FDF770F993
:10B5C000404ACDF803001023042104E64149062037
:10B5D000FDF768FA002384F815053B7003B0BDEC55
:10B5E000028BBDE8F083384AD26912057FF5A9AD18
:10B5F00094F87022002A3FF4A4AD012B59D0D4F85E
:10B600008032CDF80330102100242EE71B68180784
:10B61000D4D596E51B6819077FF5F5AD002E7FF4AC
:10B6200050AD90E51B681D077FF549AE89E51B68A5
:10B630001B077FF56AAD002E7FF443AD83E5DFF88D
:10B640008480D8F8382182EAE273A3EBE27303EB3B
:10B650005303A9FB0313DB08002AACBF43F00043EC
:10B6600043F0404364E71B6819077FF54DAF68E579
:10B670001B6818077FF52AAF63E594F87232012B37
:10B680000CBFB4F81805B4F81A05D8F80020CDF8A6
:10B690000300102302219FE51B6818077FF5F2AE17
:10B6A0004FE502F5B47293B212B215E700233B7076
:10B6B00094E7064BD3F88832A3E71AF081FEB0FB7B
:10B6C000F4F0E2E7F00F0020C0C60020E8200020E0
:10B6D00067666666458200082DE9F041DFF824813F
:10B6E00098F82031012B82B002D002B0BDE8F08181
:10B6F000D8F804000028F8D03F4B404CD3F8883BE2
:10B700003F4E01330025019304F5B2678DF80350D5
:10B710000AE01B2B84F8985548D00D2B5AD00123F2
:10B7200086F83530D8F8040003685B68984700282D
:10B7300047D0002D45D1D8F804000368DB6898474E
:10B7400083B27E2B49D096F83520002AEAD194F8AE
:10B750009825002ADDD17D2B49D094F89C252AB16B
:10B7600080F02003D8B284F89C55034694F89725BE
:10B77000062A0BD8B4F89AC5A11863440132A4F87C
:10B780009A3581F8900584F89725CBE7B4F89A2587
:10B790001344C3F3072252FA83F30122A4F89A3523
:10B7A000FF2B08BF3D4686F83520BBE7D8F80400DC
:10B7B00003685B6898470028B1D101238DF80330F6
:10B7C000AEE7284601AA0DF10301FFF767FC02B0BE
:10B7D000BDE8F081A4F89A55A4E701238DF8035041
:10B7E00084F8975586F8355084F898359AE7012300
:10B7F00084F89C3596E700BFE8200020E031002067
:10B8000000000020F00F0020054B93F820210AB122
:10B81000002070470222186083F820210120704721
:10B82000F00F0020F0B5224C224DC4F8385C85B0F2
:10B83000FEF70EFC12232049204A84F8103C42F601
:10B84000F82604F5416300274020C3E90267C4F8E5
:10B850002C1CC4F8302C1FF005FC30B394F8B33C1A
:10B8600094F8B21C90F90400154A022B14BF082367
:10B870000023002908BF43F0010303244FF4E13102
:10B88000CDE901430091002340211FF023FCA5F5E1
:10B89000B465C5F8C405014620B10A48FFF7B4FFF6
:10B8A00085F8C805081E18BF012005B0F0BD00BF0F
:10B8B000E820002080370020CD28020855420208E9
:10B8C000FD3C0208652C020810B50C4C94F82031A0
:10B8D0000BB1002010BD20201FF0C4FBC4F82401D0
:10B8E00050B120211FF0B4FB054B84F82101012049
:10B8F000236084F8200110BD012010BDF00F00204E
:10B900006D8200082DE9F043484A494C92F85E20C8
:10B9100094F8D83594F8E60594F8E77594F8EA8534
:10B9200094F8EBE594F8ECC5012A0CBF43F0020350
:10B9300003F0FD0394F8EE2584F8D83594F8ED353E
:10B9400043EA022294F8EF35FE2842EA0341C7B0E9
:10B95000D3B235D0DFF8E4903E46012EF7B205D9D8
:10B96000721E02EB09052D7B002D5CD094F8E85582
:10B9700094F8E9258DF807300B128DF800008DF84A
:10B9800003208DF8083032460B140DF10A002949C6
:10B990008DF802508DF801708DF804808DF805E067
:10B9A0008DF806C08DF8093040F0A2F906F10A00C2
:10B9B00015F0010668444FF0090518BF0D2615E083
:10B9C0008DF800001B498DF801703A460DF1060014
:10B9D0008DF802808DF803E08DF804C08DF80530F5
:10B9E00040F086F9B81D684405250026B4F8E43512
:10B9F00003701B0A437026B10F493246023040F0F3
:10BA000077F93D4403353544ADB26F46002617F84B
:10BA1000011BD4F8E804013634F0FAFDB542F6DC37
:10BA200047B0BDE8F083164697E700BFF00F00204F
:10BA3000E0310020D0370020DA380020C437002061
:10BA40000C4B034493F8283093B10B4A024492F80C
:10BA5000071751B9322B28BF322318463223B3FBC4
:10BA6000F0F082F8070701207047013982F80717C4
:10BA70000020704700000020E031002013B504468C
:10BA80000846237862780DF1060143EA0223ADF8F7
:10BA90000630FCF745FCBDF80630238002B010BD2F
:10BAA0002DE9F04F0668D3009B19036028BF436857
:10BAB000DFB024BF0133436000F128030C9300F191
:10BAC0004003044689461546C6F3C5060D9315B9CD
:10BAD0005FB0BDE8F08FC6F14007AF420C9B28BFB6
:10BAE0002F46494698193A463E4440F001F9402E07
:10BAF000B944A5EB0705EAD10EAB2246194692F8E8
:10BB00002B00087092F82A00487092F8290088707B
:10BB100092F82800C8700D980432904201F1040197
:10BB2000EDD1A2680192E2680292226903926269F1
:10BB30000492A2690592E2690692226A07921EA9FE
:10BB4000626A089208460022013253F8046B40F8FA
:10BB5000046B102AF8D18B6B0F464FEAF34080EA52
:10BB6000734051F8046F80EA93207B6A3F683B443E
:10BB70004FEAB64787EAF617184487EAD606013235
:10BB80003044402AC863E6D1304B0B93DDE902769E
:10BB9000DDE906EC049B019ADDF820B005980A93D4
:10BBA0004FF000080B9B53F8041B0B934FEAF02354
:10BBB00083EAB01383EA706A1EAB53F82830194445
:10BBC0000AEB01032CEA000A00EA0E018AEA0101ED
:10BBD00019444FEA723A87EA060359448AEAB20ADC
:10BBE00007EA060B134083EA0B038AEAB25A9A4427
:10BBF0000A9B0A9608F101080B44B8F1400F09931B
:10BC00005144E3461AD1019B0B44A360029B1344A9
:10BC1000E360039B099A3B442361049B33446361C3
:10BC2000059B1344A361069B0344E361079B734494
:10BC30002362089B63446362002648E73E46F4465D
:10BC4000174686460A460998ACE700BFD80705089C
:10BC5000F0B5066893B0F70804460D4680234722E6
:10BC600000210DF10100C7F1770707F03F078DF8BC
:10BC7000003040F075FE12AB3B44320A03F8412C11
:10BC8000320C03F8422C626803F8442C110A03F8C2
:10BC9000451C110C120E03F8406C03F8461C03F807
:10BCA000472C360E07F109026946204603F8436C1B
:10BCB000FFF7F6FEE37A2B70A37A6B70637AAB70B2
:10BCC000237AEB70E37B2B71A37B6B7113B0F0BD18
:10BCD0002DE9F04F914C94F8D87517F00207A3B0F6
:10BCE00040F01281D4F8DC25002A00F0E4801578B9
:10BCF00015F0010500F0E28001260D25FD2284F8F3
:10BD0000E625874A1A4412F801C9BCF1000F03D195
:10BD1000013BDBB2012BF6D14FF00A0884F8E7357E
:10BD200084F8EB0584F8EC15002E40F0C98084F807
:10BD3000E86594F8D2C58DF81530002284F8E9251D
:10BD40000CF1010284F8D22594F8E62594F8ED353B
:10BD50008DF8142094F8EE2584F8EAC543EA02230E
:10BD600094F8EF2543EA0242DBB2002F00F0AC80EA
:10BD70008DF816C08DF817008DF818108DF8193051
:10BD80001FFA88F74FF6FF73ADF82030B9460DF172
:10BD9000150A09F1FF391FFA89F9B9F1000F40F0CE
:10BDA000A880DFF898B1BDF8203094F8E7A5ADF889
:10BDB0000630D9460AF1FF3A4FF6FF731FFA8AFAA6
:10BDC0009A450DF1060140F09A809DF8B000FCF70D
:10BDD000A7FA94F8E725BDF806302244190A82F83C
:10BDE000F03594F8E725224482F8F115A4F8E435FB
:10BDF000002E58D0D4F8DC15002954D00B78DB077E
:10BE000051D54B7884F8FA36D1E90232CDE90232C5
:10BE1000DFF82CA1C4F8FB36BDF80C30AAF80430CA
:10BE2000D1E90232013342F10002C1E902320023BA
:10BE3000CDE908333B4A3C4B3C48DFF808C194F855
:10BE4000E765CDE90A233A4BCDE90C03394BCDE93F
:10BE50000EC3394B109303F174532022A3F523032F
:10BE6000A3F692430DEB020010311193FFF718FE79
:10BE7000424605A908A8FFF713FE3246494608A81E
:10BE8000FFF70EFE022209EB060108A8FFF708FEE5
:10BE90000AF1FF3108A80722FFF702FE0AF10601A6
:10BEA00008A8FFF7D5FE94F8E70502303844284487
:10BEB00023B0BDE8F08F3D463E461FE72E461DE706
:10BEC000012284F8E82534E794F8E8E58DF81B3082
:10BED000131212148DF816E08DF817708DF818C033
:10BEE0008DF819008DF81A108DF81C308DF81D2072
:10BEF00046E71AF8010B08A9FCF712FA49E71BF804
:10BF0000010BFCF70DFA55E7FE23002684F8E63511
:10BF1000354613464FF0060800E700BFE031002029
:10BF2000CF37002067E6096A85AE67BB72F36E3CC7
:10BF30003AF54FA58C68059BABD9831FD0370020FD
:10BF4000DB3800207F520E5117B49DF810408DF859
:10BF5000042000228DF805308DF807200A4B8DF85B
:10BF60000640019CC3F8F0452F2483F8EE2583F8A2
:10BF7000EF2583F8ED45992304930322042303B0AE
:10BF80005DF8044BA4E600BFE031002010B4036864
:10BF90000B4900228B420FD8591C01601A70094BC3
:10BFA0000268426003F2147101605DF8044BD3F83B
:10BFB000DC04521A34F02FBB11F8014B6240E9E760
:10BFC000F7380020E0310020074B03F22672426070
:10BFD00003F215720260242283F8142703685A1CA6
:10BFE000026054221A707047E03100207FB5437818
:10BFF00003F00F0403F0F003802B0ED1042164F052
:10C000007F0400238DF808108DF80940ADF80A3040
:10C0100002A8FCF7A9F904B070BD902B16D164F00A
:10C020006F038DF80930B54B04EB44041C44062122
:10C0300094F836308DF80A3094F837308DF80B309C
:10C0400000238DF80810ADF80C30E1E7A02B40F08C
:10C050008181AB4E326A12F0800126D0A94B93F851
:10C060002F3123B3012B24D0022B14BF002503252D
:10C07000A24B04EB4400034493F83830012B1DD14C
:10C08000520702A817D518F09BFE20B1BDF9083061
:10C0900013F5C87F03DA4FF67063ADF80830BDF8CA
:10C0A000081001F5C87189B20BE00D46E0E70125E3
:10C0B000DEE70225DCE718F08FFEE6E7072B04D168
:10C0C000718D2046FCF78AF9A5E7032B0AD18D4B29
:10C0D00093F82E301BB11AF0BBF90146F1E71AF0C4
:10C0E0006FF9FAE7052B08D11AF05AF90146002832
:10C0F000E7D0854BB3F88612E3E7062B08D11AF098
:10C100004FF901460028DCD07F4BB3F88812D8E7FE
:10C11000092B09D109F032F9D0ED057AFDEEE77A65
:10C1200017EE903A99B2CCE70E2B05D1B6F8AC10C9
:10C1300001EB81014900B6E70D2B03D1B6F9AA1036
:10C140004942F5E70C2B02D1B6F8A810F0E7122B04
:10C1500008D112F02001B4D06C4BD3ED057AFCEE7F
:10C16000E77ADDE7152B0CD1664B316893F8323056
:10C17000890813F0780F08BF81F0010101F0010177
:10C180009FE7162B06D125F001FF614B184490F86C
:10C19000A01196E7412B04D112F0040191D00021A7
:10C1A0008FE7852BF8D0832B04D112F0040176D0D1
:10C1B000002174E0872B2ED1019125F0E7FE544B2E
:10C1C0000199184490F8AD01002986D04D4A92F8A3
:10C1D000301105EB8505C1EB411305EB850501EB3E
:10C1E0008303A90001EBC301B368084485B2DB07F0
:10C1F00044BF05F5FA7085B20021B2F854014FF43E
:10C200007A730922B0FBF3F039F082FA0A2101FBBC
:10C21000005080B261E7082B06D100293FF451AFEE
:10C220003C4BB3F840124CE7142B06D100293FF4E5
:10C2300048AF384BB3F83C1243E77E2B0AD10029B4
:10C24000ADD0304BB3F84C31242159436423B1FBBA
:10C25000F3F128E7132B06D100293FF432AF294B25
:10C26000B3F84C112DE70A2B08D100293FF429AF70
:10C27000244AB2F94E1191FBF3F114E70B2B08D1CC
:10C2800000293FF41EAF1F4B93F8301101EB05213D
:10C2900017E7802B07D111B11A4BD3F83411204680
:10C2A000FCF782F8B7E6812B05D10029F7D0154BB2
:10C2B000D3F83811F3E7882B07D100293FF401AFF9
:10C2C000104BD3F83411144BD5E7892B06D1002934
:10C2D0003FF4F7AE0B4BD3F83811F4E7902B1DD198
:10C2E00000293FF4EEAE074BD3F834210A4B92FB02
:10C2F000F3F103FB11210A23BDE700BF000000207A
:10C30000C0C60020F00F0020E820002000370020E9
:10C3100038070508E0310020A0860100912B06D1E6
:10C3200000293FF4CEAE0C4BD3F83821DEE7822B48
:10C3300006D100293FF43CAF074BD3F83C11AEE7E0
:10C34000842B07D100293FF4BCAE034BD3F83C113A
:10C35000642390E700205EE6F00F002070B5013006
:10C36000094EC4B2E5B2172D05D9182D04BF074BED
:10C3700093F8265706E0214630463CF00DF801348C
:10C380000028EFD0284670BD58100020E031002072
:10C3900008B1FCF737B8044A936E23F4060323F47C
:10C3A0007C439366704700BFF00F00202DE9F04FEB
:10C3B000C94E2DED028B96F8665008EE100A83B038
:10C3C0008A46002D00F08280C44FDFF830834FF0A2
:10C3D0000C0996F867400134E4B2172C86F86740E0
:10C3E00005D9182C04BF002386F867300AE02146DF
:10C3F00040463BF0D1FF28B909FB047494F8C431DE
:10C40000FF2BE6D196F867B0B54C0C2303FB0B77F6
:10C41000D7F8BC110091084640F012FED7F8C07161
:10C420005FFA80F8384640F00BFE58FA80F3083384
:10C4300084F83D305FFA80F92BF00F0300EBC80061
:10C440000BF00F0B84F8403084F84400009984F816
:10C4500043B0424604F145003FF04AFC04EB0800BB
:10C460004A46394645303FF043FC204610F83D7FB0
:10C470003946FBF7D1FF3C4484F83D0018EE100A22
:10C48000FCF7F0FA681EC0B286F86600002840F09B
:10C490006881944B93F82657934BDB691A0603D5B2
:10C4A000FFF776FF86F868008E4B8D49D3F82C078E
:10C4B00091F83820363134F0AEF80323284686F858
:10C4C000693003B0BDEC028BBDE8F08F01F0F003E2
:10C4D000834FDFF80892DFF8108287F8403003F1CD
:10C4E0001002D2B201920D4607F14304019BAB4208
:10C4F00065D90C2303FB0593A34693F8C43100933D
:10C5000043EA05130BF8013B6B1E162B00F220814A
:10C51000DFE813F017007B0006017E0081008B002E
:10C520008E00910094009D00A100C200F600FA0068
:10C53000FE001E01020106010B01120115011E0180
:10C5400018016A4B93F82E30002B5BD019F080FF56
:10C55000009B4B4493F8DCC26246012AC3B200F24E
:10C56000FA80009A0CF1FF34BCF1000FE4B214BF62
:10C570002146002104F1010408BF0124092A5C447A
:10C5800007D00C2202FB059223F0600392F8C5212C
:10C59000134328460BF80130FFF7E0FE544A82456A
:10C5A0000546A4EB02020AD20C2303FB009393F886
:10C5B000C4314B4493F8DC321344102B96DD4C4BC2
:10C5C0004C48E41A0634E4B244F0400387F83D30A6
:10C5D0002146FBF721FF274487F83D0018EE100A9B
:10C5E000FCF740FA96F86830002B7FF45DAF3E4BC5
:10C5F0001B6A1B067FF558AFFBF704FF012386F883
:10C60000683051E719F0DCFEA2E7B7F986029FE730
:10C61000D7F888029CE719F0D3FEB7F98632584361
:10C6200042F2107390FBF3F092E7B8F9A8008FE79D
:10C63000B8F9AA008CE7B8F9AC0089E708F09EFECB
:10C64000D0ED057AFDEEE77A17EE900A80E7274BEA
:10C6500093F830017CE7254B2749D3F83831214A3C
:10C6600083EAE37CACEBE37C5B1403F48043BCFB28
:10C67000F1F0034301FB10CC43F40053062101FB0E
:10C680000CF1A2F82A374FF47A7CB1FBFCF1A2F846
:10C690002817D2F828075BE7144B174AD3F8343130
:10C6A000104983EAE37CACEBE37C5B1403F4804346
:10C6B000BCFBF2F002FB10CC0343062202FB0CF29F
:10C6C000A1F82A374FF47A7CB2FBFCF2A1F82827B4
:10C6D000D1F828073CE700BF000000203807050814
:10C6E000E8200020E0310020C0C60020F00F00202C
:10C6F0002B21002025210020809698005810002032
:10C70000194BB3F94C0123E7184BD3F83C021FE750
:10C71000164BB3F940021BE7134BB3F94E0117E771
:10C7200008F02CFED0ED027A8CE7D8ED187A9FED58
:10C73000107A67EE877A85E7D8ED197AF7E7D8EDB2
:10C740001A7AF4E708F0D0FD6423B0FBF3F0FFE6BB
:10C750004FF0FF30FCE6013A04F8013F000AD2B284
:10C76000FBE65546A0E600BFF00F0020E0310020B8
:10C7700000007A44F8B50C4E054606F232713BF0E3
:10C7800018FD2C6806F5E667C5E90074E41B182C53
:10C79000A8BF18242246394606F5E9603FF0A8FAFA
:10C7A00086F86047F8BD00BFE031002010B50446B0
:10C7B000C0B2FBF773FEC4F30720BDE81040FBF7DF
:10C7C0006DBE38B5054D04465E21E86E33F020FF9E
:10C7D000E86E2146BDE8384033F01ABFF00F002064
:10C7E00013B5044601A90068FBF730FE1320FFF7DC
:10C7F000E8FFBDF90400FFF7D9FF1B20FFF7E1FFB9
:10C80000BDF90600FFF7D2FF2320FFF7DAFF236808
:10C81000002BB4BF53204E20FFF7C8FF01A960686A
:10C82000FBF714FE1220FFF7CCFFBDF90400FFF761
:10C83000BDFF1A20FFF7C5FFBDF90600FFF7B6FFE1
:10C840002220FFF7BEFF6368002BB4BF57204520AE
:10C85000FFF7ACFF02B010BD2DE9F043302085B0EA
:10C86000FFF7AFFF08F08AFD90ED050ACA4C3DF0D6
:10C87000DBF800B2FFF79AFFFBF728FE94F8613768
:10C880009B0734D1D4F8642741F288339A421BD9EC
:10C8900008F074FDD0ED027AFDEEE77A102017EE75
:10C8A000906A6427FFF78DFF96FBF7F528B2FFF734
:10C8B0007DFF2120FFF785FF07FB15600028B8BF2B
:10C8C000404200B2FFF772FF1420FFF77AFFB34B2C
:10C8D000B3F9AC000A2390FBF3F0FFF767FF1C20CD
:10C8E000FFF76FFF0020FFF761FFFBF7EFFD94F804
:10C8F000610710F0070640F0CD800220FFF761FFCE
:10C90000FBF7ECFDA54D00B2FFF750FF0320FFF74A
:10C9100058FF2B685F0740F1E680304625F0B2FEF5
:10C92000B5F92A30052293FBF2F39BB220B9EA69EC
:10C9300012F0100F18BF002318B2FFF737FFEB6992
:10C9400098073CD519F03CFD94F817350A265B0092
:10C950007043B0FBF3F0C0F3032747EA002087B22F
:10C960000620FFF72EFF38B28D4FFFF71FFF19F09B
:10C9700027FD97F82C30012B804640F0BD803920F0
:10C98000FFF71FFFB8FBF6F000B2864EFFF70EFF71
:10C990002820FFF716FF0A23B6F9860290FBF3F072
:10C9A000FFF704FF97F83130002B40F0C8800420D7
:10C9B000FFF707FF19F012FD00B2FFF7F7FE2B6A31
:10C9C000190640F1E180AB68754E13F0020F29D0D3
:10C9D0001120FFF7F6FEB6F84C01734B4FF4F367E6
:10C9E00010FB07F090FBF3F000B2FFF7DFFE192019
:10C9F000FFF7E7FEB6F84C01642210FB07F090FB4E
:10CA0000F2F090FBF2F302FB130000B2FFF7CEFE50
:10CA1000AB689A0706D50720FFF7D3FEB4F93C02AE
:10CA2000FFF7C4FEA868D6F83C3110F0020718BF23
:10CA300064274FF001001CBF93FBF7F7BFB2FFF76D
:10CA4000C0FE38B2FFF7B2FE0920FFF7BAFE0020A1
:10CA5000FFF7ACFE0520FFF7B4FEFBF721FF00B2A5
:10CA6000FFF7A4FE0023CDE90033AB689B0703D496
:10CA700094F86837012B73D1012384F86837D6F80E
:10CA800034310093D6F8383101936846FFF7A8FE99
:10CA9000FBF71CFD94F86137282B21D1002384F883
:10CAA0006137404B3C25D3F8880B4FF47A76B0FBC6
:10CAB000F6F61720FFF785FEB6FBF5F4B4FBF5F0AC
:10CAC00005FB1040000200B2FFF770FE1820FFF7D0
:10CAD00078FE05FB146000B2FFF768FEFBF7F6FC7A
:10CAE00005B0BDE8F0832F4BD3F82834D868052370
:10CAF000B0FBF3F000B220E797F82E300B2670431E
:10CB00001526B0FBF6F01BB194F81735B0FBF3F027
:10CB10001FFA80F83A20FFF754FE4FF06409B8FB83
:10CB2000F9F630B2FFF742FE3B20FFF74AFE09FB61
:10CB3000168080B205300A26B0FBF6F024E719F023
:10CB40002FFC00283FF43BAF0420FFF73AFE97F894
:10CB50003130012B0CBFB6F98802B4F980022CE702
:10CB6000DFED126A96ED087AD6ED097A27EE267A7D
:10CB700067EEA67ABDEEC77AFDEEE77A8DED027A12
:10CB8000CDED037A02A881E7094A92E8030002ABDF
:10CB900083E80300184679E7E0310020C0C6002092
:10CBA000F00F0020E8200020A08601008096184B9E
:10CBB000200A0508F7B5404C404E94F87E77012FC7
:10CBC00002460B4611D806EB8706D6F8F0621EBB6C
:10CBD00094F87E3703220133B3FBF2F202EB4202F8
:10CBE0009B1A84F87E3703B0F0BD94F87F5794F811
:10CBF00080172F4406EB8706013505F00305D6F8AC
:10CC0000F06284F87F570029E1D0D4F8840704F556
:10CC1000F1618842DBD12A4E94F89C1721B3A620FB
:10CC200084F89D07802084F89E071620254984F803
:10CC30009F072548019190F86A0084F8A0071239EF
:10CC400000916846B0470028C2D094F89C07009D28
:10CC500080B31E480195291A023100901AF098FA03
:10CC6000002384F8B337B3E7194D0195A52184F863
:10CC70006917802184F86A17123D1521009584F800
:10CC80006B17DEE716F8011B3BF0AEFAB542F9D898
:10CC90000146684637F06FF80E49009D6D1A152D54
:10CCA000A8BF15252A4601F14B003FF021F884F872
:10CCB000C9578DE7084EE9E7E0310020380705083D
:10CCC000898D000893390020000000207D39002064
:10CCD0005E390020493900204C3900202DE9F04F01
:10CCE0004D4E96F870308DB0CDE9020113B90DB0FC
:10CCF000BDE8F08F96F8F820002A6CD1474F97F8DE
:10CD0000CA87B8F1000F37D197F83438002B40F0BC
:10CD10008D80DDE90201D7F8303897F83588404A30
:10CD2000B2FBF8F21A440023994208BF9042DED3C6
:10CD300097F83658029BC7F830387B1993F8389823
:10CD400019F0010F41F08B8419F0020F41F04A8273
:10CD500019F0040F41F0578019F0080F40F00484D7
:10CD600019F0100F40F057830135B5FBF8F308FBBD
:10CD7000135887F83688BAE7D7F82C0800283AD035
:10CD80000026B04607F2CC794FF0500A0BE016446B
:10CD9000EFF311838AF31288D7F82C28964233DAFE
:10CDA000DBB283F31188BB19701C93F8CCB74844ED
:10CDB0005946FBF717FF0BF101020028E7D019498C
:10CDC0003A20FBF76FFE0BF1010340EA08005FFA1F
:10CDD00080F81E44DCE7144BD3F8CC7C3B68DB695D
:10CDE000002B00F00783384606F1B801984700236E
:10CDF00086F8F83082E78046029B87F8CA87C7F832
:10CE000030380DB0BDE8F08F0022DBB2C7F82C2817
:10CE100083F31188F0E700BFF00F0020E03100201D
:10CE2000A086010021860008E8200020B84B00936E
:10CE30004FF0C80CB74BB84AB84986F8B48004A87C
:10CE400086F874C036F0A1FF96F8B43086F8758085
:10CE5000292183EA01025200DB0918BF82F0D502C2
:10CE6000D2B212F0800F4FEA420218BF82F0D50210
:10CE7000D2B212F0800F4FEA420218BF82F0D50200
:10CE8000D2B212F0800F4FEA420218BF82F0D502F0
:10CE9000D2B212F0800F4FEA420218BF82F0D502E0
:10CEA000D2B212F0800F4FEA420218BF82F0D502D0
:10CEB000D2B212F0800F4FEA420218BF82F0D502C0
:10CEC000D2B212F0800F4FEA420218BF82F0D502B0
:10CED000D2B2EA2386F8773053405B00D20908BF0C
:10CEE00083F0D503DBB213F0800F4FEA430318BF82
:10CEF00083F0D503DBB213F0800F4FEA430318BF72
:10CF000083F0D503DBB213F0800F4FEA430318BF61
:10CF100083F0D503DBB213F0800F4FEA430318BF51
:10CF200083F0D503DBB213F0800F4FEA430318BF41
:10CF300083F0D503DBB213F0800F4FEA430318BF31
:10CF400083F0D503DBB213F0800F4FEA430318BF21
:10CF500083F0D503DBB2C82283EA02084FEA48080F
:10CF6000DB0908BF88F0D5085FFA88F818F0800F51
:10CF70004FEA480818BF88F0D5085FFA88F818F01B
:10CF8000800F4FEA480818BF88F0D5085FFA88F884
:10CF900018F0800F4FEA480818BF88F0D5085FFAEC
:10CFA00088F818F0800F4FEA480818BF88F0D508B5
:10CFB0005FFA88F818F0800F4FEA480818BF88F029
:10CFC000D5085FFA88F818F0800F4FEA480818BFB4
:10CFD00088F0D5085FFA88F818F0800F4FEA480803
:10CFE00018BF88F0D5085FFA88F886F8761086F8BA
:10CFF000782004A886F8B48040F022F8002801F0D8
:10D000008685DFF81CE104AA02EB000C714612F8D9
:10D01000013B01F8013B83EA080818F0800F4FEA52
:10D02000480819BF88F0D5034FFA83F85FFA88F3F0
:10D030004FFA88F818BFDBB2B8F1000FB7BF5B003A
:10D040004FEA430883F0D5034FFA83F8A6BF5FFA8F
:10D0500088F34FFA88F8DBB2B8F1000FB7BF5B0076
:10D060004FEA430883F0D5034FFA83F8A6BF5FFA6F
:10D0700088F34FFA88F8DBB2B8F1000FB7BF5B0056
:10D080004FEA430883F0D5034FFA83F8A6BF5FFA4F
:10D0900088F34FFA88F8DBB2B8F1000FB7BF5B0036
:10D0A0004FEA430883F0D5034FFA83F8A6BF5FFA2F
:10D0B00088F34FFA88F8DBB2B8F1000FB7BF5B0016
:10D0C0004FEA430883F0D5034FFA83F8AABF5FFA0B
:10D0D00088F3DBB24FFA88F8B8F1000F4FEA430348
:10D0E000B5BF83F0D5085FFA83F84FFA88F35BB2D7
:10D0F000B8BF5FFA88F84FEA4808002BB8BF88F03D
:10D10000D50894455FFA88F881D170440AE000BFE1
:10D110007C7B0508607B0508687B0508707B05083B
:10D12000691000200246002318F0800F02F8013B2E
:10D130004FEA480318BF83F0D503DBB213F0800F2A
:10D140004FEA430318BF83F0D503DBB213F0800F1F
:10D150004FEA430318BF83F0D503DBB213F0800F0F
:10D160004FEA430318BF83F0D503DBB213F0800FFF
:10D170004FEA430318BF83F0D503DBB213F0800FEF
:10D180004FEA430318BF83F0D503DBB213F0800FDF
:10D190004FEA430318BF83F0D503DBB213F0800FCF
:10D1A0004FEA430318BF83F0D503DBB200F10D0152
:10D1B0004FF0000C13F0800F4FEA430315BF83F0CC
:10D1C000D50E5FFA83FE4FFA8EF35BB218BF5FFA9B
:10D1D0008EFE002BB5BF4FEA4E0E4FEA4E038EF087
:10D1E000D50E5FFA83FEB6BF4FFA8EF35BB25FFADD
:10D1F0008EFE002BBBBF4FEA4E0383F0D5034FEAF0
:10D200004E0E4FFA83FEA6BF5FFA8EF34FFA8EFEE4
:10D21000DBB2BEF1000FB7BF5B004FEA430E83F0F5
:10D22000D5034FFA83FEA6BF5FFA8EF34FFA8EFE48
:10D23000DBB2BEF1000FB7BF5B004FEA430E83F0D5
:10D24000D5034FFA83FEA6BF5FFA8EF34FFA8EFE28
:10D25000DBB2BEF1000FB7BF5B004FEA430E83F0B5
:10D26000D5034FFA83FEA6BF5FFA8EF34FFA8EFE08
:10D27000DBB2BEF1000FB5BF5B004FEA430E83F097
:10D28000D5035FFA8EF3B8BF4FFA83FE02F801CBE5
:10D29000B4BFDBB24FFA8EFE5B00BEF1000FB8BF29
:10D2A00083F0D5038A42DBB284D113F0800F4FEABA
:10D2B000430318BF83F0D503DBB213F0800F4FEAAE
:10D2C000430318BF83F0D503DBB213F0800F4FEA9E
:10D2D000430318BF83F0D503DBB213F0800F4FEA8E
:10D2E000430318BF83F0D503DBB213F0800F4FEA7E
:10D2F000430318BF83F0D503DBB213F0800F4FEA6E
:10D30000430318BF83F0D503DBB213F0800F4FEA5D
:10D31000430318BF83F0D503DBB213F0800F4FEA4D
:10D3200043034FF0000218BF83F0D5034273DBB212
:10D33000012282735A40DB094FEA420318BF83F08F
:10D34000D503DBB213F0800F4FEA430318BF83F01D
:10D35000D503DBB213F0800F4FEA430318BF83F00D
:10D36000D503DBB213F0800F4FEA430318BF83F0FD
:10D37000D503DBB213F0800F4FEA430318BF83F0ED
:10D38000D503DBB213F0800F4FEA430318BF83F0DD
:10D39000D503DBB213F0800F4FEA4303714918BF86
:10D3A00083F0D503DBB200F110056D1A13F0800F86
:10D3B0004FEA430301F1010200F10F0C18BF83F0A3
:10D3C000D503402DDBB2A8BF4025ACEB020CC373E4
:10D3D0002A4601F1440086F875C086F8B4303EF064
:10D3E00087FC029A86F8F8500023C7F8302887F89F
:10D3F00034387CE406F1B80909EB0208384633F00A
:10D4000001F90028FAD019F8011B384633F000F969
:10D41000C145F3D1EBE44FF4996107225423A6F8F8
:10D42000741086F8762086F8B43007F0A7FF90EDE8
:10D43000050A3CF0F9FAC0F3072282F0540386F89B
:10D4400077205B00D20918BF83F0D503DBB213F05D
:10D45000800F4FEA430318BF83F0D503DBB213F00C
:10D46000800F4FEA430318BF83F0D503DBB213F0FC
:10D47000800F4FEA430318BF83F0D503DBB213F0EC
:10D48000800F4FEA430318BF83F0D503DBB213F0DC
:10D49000800F4FEA430318BF83F0D503DBB213F0CC
:10D4A000800F4FEA430318BF83F0D503DBB213F0BC
:10D4B000800F4FEA430318BF83F0D503C0B2DBB23D
:10D4C000434013F0800F4FEA430318BF83F0D503A6
:10D4D000DBB213F0800F4FEA430318BF83F0D5038C
:10D4E000DBB213F0800F4FEA430318BF83F0D5037C
:10D4F000DBB213F0800F4FEA430318BF83F0D5036C
:10D50000DBB213F0800F4FEA430318BF83F0D5035B
:10D51000DBB213F0800F4FEA430318BF83F0D5034B
:10D52000DBB213F0800F4FEA430318BF83F0D5033B
:10D53000DBB213F0800F4FEA430318BF83F0D5032B
:10D54000DBB2084A86F8793086F8780092E8030062
:10D5500086F8B4300623C6F8B800A6F8BC1086F8E2
:10D56000F83001E464100020D6F83421110E81F067
:10D570007F0386F877105B00C90918BF83F0D503D5
:10D58000DBB213F0800F4FEA430318BF83F0D503DB
:10D59000DBB213F0800F4FEA430318BF83F0D503CB
:10D5A000DBB213F0800F4FEA430318BF83F0D503BB
:10D5B000DBB213F0800F4FEA430318BF83F0D503AB
:10D5C000DBB213F0800F4FEA430318BF83F0D5039B
:10D5D000DBB213F0800F4FEA430318BF83F0D5038B
:10D5E000DBB213F0800F4FEA430318BF83F0D5037B
:10D5F000C2F30741DBB24B4013F0800F4FEA430305
:10D6000018BF83F0D503DBB213F0800F4FEA43035A
:10D6100018BF83F0D503DBB213F0800F4FEA43034A
:10D6200018BF83F0D503DBB213F0800F4FEA43033A
:10D6300018BF83F0D503DBB213F0800F4FEA43032A
:10D6400018BF83F0D503DBB213F0800F4FEA43031A
:10D6500018BF83F0D503DBB213F0800F4FEA43030A
:10D6600018BF83F0D503DBB213F0800F4FEA4303FA
:10D6700018BF83F0D50386F87810DBB2C2F3072118
:10D680004B4013F0800F4FEA430318BF83F0D503DC
:10D69000DBB213F0800F4FEA430318BF83F0D503CA
:10D6A000DBB213F0800F4FEA430318BF83F0D503BA
:10D6B000DBB213F0800F4FEA430318BF83F0D503AA
:10D6C000DBB213F0800F4FEA430318BF83F0D5039A
:10D6D000DBB213F0800F4FEA430318BF83F0D5038A
:10D6E000DBB213F0800F4FEA430318BF83F0D5037A
:10D6F000DBB213F0800F4FEA430318BF83F0D5036A
:10D70000D2B2DBB2534013F0800F4FEA430318BF8D
:10D7100083F0D503DBB213F0800F4FEA430318BF49
:10D7200083F0D503DBB213F0800F4FEA430318BF39
:10D7300083F0D503DBB213F0800F4FEA430318BF29
:10D7400083F0D503DBB213F0800F4FEA430318BF19
:10D7500083F0D503DBB213F0800F4FEA430318BF09
:10D7600083F0D503DBB213F0800F4FEA430318BFF9
:10D7700083F0D503DBB213F0800F86F87A204FEAEE
:10D780004303D6F8382186F8791018BF83F0D50303
:10D79000110EDBB24B4013F0800F4FEA430318BF6A
:10D7A00083F0D503DBB213F0800F4FEA430318BFB9
:10D7B00083F0D503DBB213F0800F4FEA430318BFA9
:10D7C00083F0D503DBB213F0800F4FEA430318BF99
:10D7D00083F0D503DBB213F0800F4FEA430318BF89
:10D7E00083F0D503DBB213F0800F4FEA430318BF79
:10D7F00083F0D503DBB213F0800F4FEA430318BF69
:10D8000083F0D503DBB213F0800F4FEA430318BF58
:10D8100083F0D50386F87B10DBB2C2F307414B409F
:10D8200013F0800F4FEA430318BF83F0D503DBB238
:10D8300013F0800F4FEA430318BF83F0D503DBB228
:10D8400013F0800F4FEA430318BF83F0D503DBB218
:10D8500013F0800F4FEA430318BF83F0D503DBB208
:10D8600013F0800F4FEA430318BF83F0D503DBB2F8
:10D8700013F0800F4FEA430318BF83F0D503DBB2E8
:10D8800013F0800F4FEA430318BF83F0D503DBB2D8
:10D8900013F0800F4FEA430318BF83F0D50386F8D7
:10D8A0007C10DBB2C2F307214B4013F0800F4FEA2C
:10D8B000430318BF83F0D503DBB213F0800F4FEAA8
:10D8C000430318BF83F0D503DBB213F0800F4FEA98
:10D8D000430318BF83F0D503DBB213F0800F4FEA88
:10D8E000430318BF83F0D503DBB213F0800F4FEA78
:10D8F000430318BF83F0D503DBB213F0800F4FEA68
:10D90000430318BF83F0D503DBB213F0800F4FEA57
:10D91000430318BF83F0D503DBB213F0800F4FEA47
:10D92000430318BF83F0D503D2B2DBB2534013F0E8
